:100000000C943B000C9445000C9445000C94450066
:100010000C9445000C9445000C9445000C9445004C
:100020000C9445000C9445000C9445000C9445003C
:100030000C9445000C946E000C9445000C94450003
:100040000C9447000C9445000C9445000C9445001A
:100050000C9445000C9445000C9445000C9445000C
:100060000C9445000C9445005501570159015B0162
:100070005D0164016B0111241FBECFEFD8E0DEBF2C
:10008000CDBF0E94AF010C94DD010C9400001F92C3
:100090000F920FB60F9211242F933F934F935F93BC
:1000A0006F937F938F939F93AF93BF93EF93FF9340
:1000B00062E085E290E00E94A000FF91EF91BF9185
:1000C000AF919F918F917F916F915F914F913F91F0
:1000D0002F910F900FBE0F901F9018951F920F92A7
:1000E0000FB60F9211242F933F934F935F936F930B
:1000F0007F938F939F93AF93BF93EF93FF9361E0B1
:1001000085E290E00E94A000FF91EF91BF91AF9136
:100110009F918F917F916F915F914F913F912F911F
:100120000F900FBE0F901F901895FC01408121E0A9
:1001300030E001C0220F6A95EAF7242B208308954E
:10014000FC01908121E030E001C0220F6A95EAF7BE
:100150002095292720830895FC01808121E030E04B
:1001600001C0220F6A95EAF7411103C020952823A8
:1001700001C0282B20830895FC01429121E030E04A
:1001800001C0220F6A95EAF7322F3095342330836D
:10019000FC013081232B20830895811131C063300D
:1001A000F9F050F4662379F0613039F585B58B7F2D
:1001B00085BD85B582600FC0653041F06630E9F4D9
:1001C00085B5846013C085B58B7F10C085B584600C
:1001D00085BD85B58D7F85BD85B58E7F85BD08952F
:1001E00085B58B7F85BD85B5826003C085BD85B52E
:1001F0008D7F85BD85B58160F1CF85B58B7FE8CFDB
:10020000813009F044C06330D1F068F4662399F07E
:10021000613069F5809181008B7F809381008091AE
:10022000810082602CC0653099F0663001F58091C4
:100230008100846011C0809181008B7F0DC080910E
:1002400081008B7F8093810080918100826009C052
:100250008091810084600EC0809381008091810034
:100260008D7F809381008091810081600DC080919D
:1002700081008B7F80938100809181008D7F8093AE
:100280008100809181008E7F80938100089582306B
:10029000E9F5862F90E08730910548F5FC01EC5C8C
:1002A000FF4F8091B1000C94D7018B7F07C08B7FEB
:1002B0000CC08B7F11C084601DC084608093B1002E
:1002C0008091B1008D7F0DC084608093B1008091DA
:1002D000B100826014C084608093B1008091B1004D
:1002E00082608093B1008091B10081600DC08091E7
:1002F000B1008B7F8093B1008091B1008D7F80939E
:10030000B1008091B1008E7F8093B100089581117A
:100310000CC080916E00662321F0613011F4816081
:1003200001C08E7F80936E000895813061F48091CA
:100330006F00662321F0613011F4816001C08E7F6F
:1003400080936F00089580917000662321F06130E2
:1003500011F4816001C08E7F80937000089562E087
:1003600084E290E00E94950044E062E085E290E043
:100370000E94AC0061E084E290E00E94950044E0BD
:1003800061E085E290E00E94AC0066E080E00E94BF
:10039000CD0061E080E00E94870165E081E00E947D
:1003A000CD0061E081E00E9487017894FFCFEE0FDD
:0E03B000FF1F0590F491E02D0994F894FFCF03
:00000001FF
