:100000000C943B000C9458000C9458000C9458002D
:100010000C9458000C9458000C9458000C94580000
:100020000C9458000C9458000C9458000C945800F0
:100030000C9458000C945A000C9458000C945800DE
:100040000C9458000C9458000C9458000C945800D0
:100050000C9458000C9458000C9458000C945800C0
:100060000C9458000C9458003302350237023902C0
:100070003B024202490211241FBECFEFD8E0DEBF8F
:10008000CDBF11E0A0E0B1E0EEEAF6E002C00590DD
:100090000D92A632B107D9F721E0A6E2B1E001C086
:1000A0001D92A133B207E1F70E948D020C94550313
:1000B0000C9400001F920F920FB60F9211242F93F1
:1000C0003F934F935F936F937F938F939F93AF93E0
:1000D000BF93EF93FF93809126014AE068E271E0BD
:1000E00090E00E94200360E089E00E94330181E2F9
:1000F00091E00E944F0160E089E00E94330188E2B4
:1001000091E00E944F018091260140E168E271E098
:1001100090E00E94200361E081E00E94330182E2CE
:1001200091E00E944F0161E081E00E94330188E28A
:1001300091E00E944F018091260142E068E271E067
:1001400090E00E94200361E088E00E9433018CE18E
:1001500091E00E944F0161E088E00E94330188E253
:1001600091E00E944F01809126018F5F80932601CC
:10017000FF91EF91BF91AF919F918F917F916F917F
:100180005F914F913F912F910F900FBE0F901F9055
:100190001895299A85E08A95F1F700002998089525
:1001A000CF93C82F662311F0289A01C02898549A3B
:1001B000559A569A579A5F985E985D985C98C7FDD5
:1001C0005F9AC6FD5E9AC5FD5D9AC4FD5C9A0E9469
:1001D000C9005F985E985D985C98C3FD5F9AC2FD08
:1001E0005E9AC1FD5D9AC0FD5C9A0E94C9005C9A4E
:1001F0005D9A5E9A5F9A8FE39FE10197F1F700C0E5
:100200000000CF91089528985D9A54985598569873
:100210005798299A85E08A95F1F700004C9B02C017
:1002200080E101C080E04D9980624E9980644F99D1
:100230008068299895E09A95F1F70000299A95E051
:100240009A95F1F700004C9981604D9982604E9922
:1002500084604F9988602998089560E00C94D000DC
:1002600061E00C94D000611102C0805801C080543C
:100270000C942D010E94030187FDFCCF85E18A9536
:10028000F1F700000E94030190E0089581E00C94D2
:100290002D0182E00C942D0161E00C94D000CF93ED
:1002A000DF93EC018991882319F00E944C01FACF69
:1002B000DF91CF910895CF93DF93FC018491EF01FB
:1002C0002196882321F00E944C01FE01F7CFDF9197
:1002D000CF910895CF93C82F209A559A219A549A76
:1002E000559A569A579A8FEF99EF0197F1F700C0F8
:1002F00000005D9A5C9A0E94C9008FE19EE401971C
:10030000F1F700C000000E94C9008FEF90E0019754
:10031000F1F700C000000E94C9008FEF90E0019744
:10032000F1F700C000005C980E94C9008FEF90E0D8
:100330000197F1F700C0000088E20E942D0188E0DB
:100340000E942D010E94460186E00E942D018C2F03
:10035000CF910C942D01811131C06330F9F050F42C
:10036000662379F0613039F585B58B7F85BD85B51C
:1003700082600FC0653041F06630E9F485B5846075
:1003800013C085B58B7F10C085B5846085BD85B5EC
:100390008D7F85BD85B58E7F85BD089585B58B7FA5
:1003A00085BD85B5826003C085BD85B58D7F85BD62
:1003B00085B58160F1CF85B58B7FE8CF813009F0BD
:1003C00044C06330D1F068F4662399F0613069F578
:1003D000809181008B7F8093810080918100826079
:1003E0002CC0653099F0663001F580918100846001
:1003F00011C0809181008B7F0DC0809181008B7F27
:100400008093810080918100826009C08091810089
:1004100084600EC080938100809181008D7F8093E5
:1004200081008091810081600DC0809181008B7F6F
:1004300080938100809181008D7F809381008091E5
:1004400081008E7F8093810008958230E9F5862FA8
:1004500090E08730910548F5FC01EC5CFF4F8091FE
:10046000B1000C941A038B7F07C08B7F0CC08B7F6D
:1004700011C084601DC084608093B1008091B10080
:100480008D7F0DC084608093B1008091B100826047
:1004900014C084608093B1008091B1008260809329
:1004A000B1008091B10081600DC08091B1008B7F5F
:1004B0008093B1008091B1008D7F8093B1008091D5
:1004C000B1008E7F8093B100089581110CC080919E
:1004D0006E00662321F0613011F4816001C08E7FCF
:1004E00080936E000895813061F480916F006623DF
:1004F00021F0613011F4816001C08E7F80936F0024
:10050000089580917000662321F0613011F48160BC
:1005100001C08E7F809370000895CF93DF93CDB795
:10052000DEB760970FB6F894DEBF0FBECDBF8CE08C
:100530000E946A01809126014AE068E271E090E041
:100540000E94200360E080E00E94330180E191E09E
:100550000E944F0160E089E00E94330188E291E04F
:100560000E944F0161E080E00E94330180912601EA
:1005700040E168E271E090E00E94200384E20E9482
:100580004C0161E081E00E94330188E291E00E9429
:100590004F0161E086E00E9433018091260142E034
:1005A00068E271E090E00E94200389E191E00E94FE
:1005B0004F0161E088E00E94330188E291E00E94EF
:1005C0004F0165E081E00E94AB0161E081E00E94A3
:1005D000650280E1E0E0F1E0DE01119601900D920C
:1005E0008A95E1F780E40E942D0110922701809105
:1005F0002701803178F4E1E0F0E0EC0FFD1FE80F17
:10060000F11D80810E943001809127018F5F8093CE
:100610002701EDCF60E08EE00E94330180E00E9470
:100620004C0160E08FE00E94330181E00E944C01A8
:100630007894FFCFEE0FFF1F0590F491E02D099401
:10064000BB274A3031F4992322F4BDE2909581957D
:100650009F4F0C942C03BB27FB015527AA27880F1B
:10066000991FAA1FA41710F0A41B83955051B9F726
:10067000A05DAA3308F0A95DA193009779F7B111A5
:10068000B1931192CB010C944503DC01FC01672F5F
:1006900071917723E1F7329704C07C916D93708359
:0E06A0006291AE17BF07C8F30895F894FFCF1C
:1006AE0002060E1E1E0E060202090515050902009F
:1006BE00436F756E7465723A003062002020202000
:0606CE00202020200000A6
:00000001FF
